{
  "contractName": "GamblingPlatform",
  "abi": [
    {
      "constant": true,
      "inputs": [],
      "name": "maxBet",
      "outputs": [
        {
          "name": "",
          "type": "uint256"
        }
      ],
      "payable": false,
      "stateMutability": "view",
      "type": "function"
    },
    {
      "constant": true,
      "inputs": [],
      "name": "currentSupply",
      "outputs": [
        {
          "name": "",
          "type": "uint256"
        }
      ],
      "payable": false,
      "stateMutability": "view",
      "type": "function"
    },
    {
      "constant": true,
      "inputs": [],
      "name": "owner",
      "outputs": [
        {
          "name": "",
          "type": "address"
        }
      ],
      "payable": false,
      "stateMutability": "view",
      "type": "function"
    },
    {
      "constant": true,
      "inputs": [],
      "name": "tokenAddress",
      "outputs": [
        {
          "name": "",
          "type": "address"
        }
      ],
      "payable": false,
      "stateMutability": "view",
      "type": "function"
    },
    {
      "constant": false,
      "inputs": [
        {
          "name": "newOwner",
          "type": "address"
        }
      ],
      "name": "transferOwnership",
      "outputs": [],
      "payable": false,
      "stateMutability": "nonpayable",
      "type": "function"
    },
    {
      "inputs": [
        {
          "name": "_maxBet",
          "type": "uint256"
        },
        {
          "name": "_tokenAddress",
          "type": "address"
        }
      ],
      "payable": false,
      "stateMutability": "nonpayable",
      "type": "constructor"
    },
    {
      "anonymous": false,
      "inputs": [
        {
          "indexed": true,
          "name": "playerAddress",
          "type": "address"
        },
        {
          "indexed": false,
          "name": "isPlayerWon",
          "type": "bool"
        },
        {
          "indexed": false,
          "name": "diceResult",
          "type": "uint256"
        },
        {
          "indexed": false,
          "name": "amountOfBet",
          "type": "uint256"
        }
      ],
      "name": "BetCreated",
      "type": "event"
    },
    {
      "anonymous": false,
      "inputs": [
        {
          "indexed": true,
          "name": "playerAddress",
          "type": "address"
        },
        {
          "indexed": false,
          "name": "amount",
          "type": "uint256"
        }
      ],
      "name": "PlayerDeposited",
      "type": "event"
    },
    {
      "anonymous": false,
      "inputs": [
        {
          "indexed": true,
          "name": "playerAddress",
          "type": "address"
        },
        {
          "indexed": false,
          "name": "amount",
          "type": "uint256"
        }
      ],
      "name": "PlayerWithdrew",
      "type": "event"
    },
    {
      "anonymous": false,
      "inputs": [
        {
          "indexed": false,
          "name": "amount",
          "type": "uint256"
        }
      ],
      "name": "OwnerDeposited",
      "type": "event"
    },
    {
      "anonymous": false,
      "inputs": [
        {
          "indexed": false,
          "name": "amount",
          "type": "uint256"
        }
      ],
      "name": "OwnerWithdrew",
      "type": "event"
    },
    {
      "anonymous": false,
      "inputs": [
        {
          "indexed": true,
          "name": "previousOwner",
          "type": "address"
        },
        {
          "indexed": true,
          "name": "newOwner",
          "type": "address"
        }
      ],
      "name": "OwnershipTransferred",
      "type": "event"
    },
    {
      "constant": false,
      "inputs": [
        {
          "name": "_betAmount",
          "type": "uint256"
        }
      ],
      "name": "bet",
      "outputs": [
        {
          "name": "isPlayerWon",
          "type": "bool"
        }
      ],
      "payable": false,
      "stateMutability": "nonpayable",
      "type": "function"
    },
    {
      "constant": false,
      "inputs": [
        {
          "name": "_amount",
          "type": "uint256"
        }
      ],
      "name": "ownerDeposit",
      "outputs": [
        {
          "name": "",
          "type": "bool"
        }
      ],
      "payable": false,
      "stateMutability": "nonpayable",
      "type": "function"
    },
    {
      "constant": false,
      "inputs": [
        {
          "name": "_amount",
          "type": "uint256"
        }
      ],
      "name": "ownerWithdraw",
      "outputs": [
        {
          "name": "",
          "type": "bool"
        }
      ],
      "payable": false,
      "stateMutability": "nonpayable",
      "type": "function"
    },
    {
      "constant": false,
      "inputs": [
        {
          "name": "_amount",
          "type": "uint256"
        }
      ],
      "name": "playerDeposit",
      "outputs": [
        {
          "name": "",
          "type": "bool"
        }
      ],
      "payable": false,
      "stateMutability": "nonpayable",
      "type": "function"
    },
    {
      "constant": false,
      "inputs": [
        {
          "name": "_amount",
          "type": "uint256"
        }
      ],
      "name": "playerWithdraw",
      "outputs": [
        {
          "name": "",
          "type": "bool"
        }
      ],
      "payable": false,
      "stateMutability": "nonpayable",
      "type": "function"
    },
    {
      "constant": true,
      "inputs": [],
      "name": "getCurrentSupply",
      "outputs": [
        {
          "name": "",
          "type": "uint256"
        }
      ],
      "payable": false,
      "stateMutability": "view",
      "type": "function"
    },
    {
      "constant": true,
      "inputs": [],
      "name": "getPlayerBalance",
      "outputs": [
        {
          "name": "",
          "type": "uint256"
        }
      ],
      "payable": false,
      "stateMutability": "view",
      "type": "function"
    }
  ],
  "bytecode": "0x608060405234801561001057600080fd5b506040516040806115da8339810180604052810190808051906020019092919080519060200190929190505050336000806101000a81548173ffffffffffffffffffffffffffffffffffffffff021916908373ffffffffffffffffffffffffffffffffffffffff1602179055508160038190555080600460006101000a81548173ffffffffffffffffffffffffffffffffffffffff021916908373ffffffffffffffffffffffffffffffffffffffff160217905550600460009054906101000a900473ffffffffffffffffffffffffffffffffffffffff16600260006101000a81548173ffffffffffffffffffffffffffffffffffffffff021916908373ffffffffffffffffffffffffffffffffffffffff16021790555050506114a1806101396000396000f3006080604052600436106100ba576000357c0100000000000000000000000000000000000000000000000000000000900463ffffffff1680630b01517c146100bf578063141833dc146100ea5780632e5b21681461012f57806333f707d11461015a5780634f3e1efc1461019f5780635629365b146101ca57806360c8ae511461020f5780637365870b14610254578063771282f6146102995780638da5cb5b146102c45780639d76ea581461031b578063f2fde38b14610372575b600080fd5b3480156100cb57600080fd5b506100d46103b5565b6040518082815260200191505060405180910390f35b3480156100f657600080fd5b50610115600480360381019080803590602001909291905050506103fc565b604051808215151515815260200191505060405180910390f35b34801561013b57600080fd5b50610144610638565b6040518082815260200191505060405180910390f35b34801561016657600080fd5b506101856004803603810190808035906020019092919050505061063e565b604051808215151515815260200191505060405180910390f35b3480156101ab57600080fd5b506101b4610844565b6040518082815260200191505060405180910390f35b3480156101d657600080fd5b506101f56004803603810190808035906020019092919050505061084e565b604051808215151515815260200191505060405180910390f35b34801561021b57600080fd5b5061023a60048036038101908080359060200190929190505050610aa5565b604051808215151515815260200191505060405180910390f35b34801561026057600080fd5b5061027f60048036038101908080359060200190929190505050610e6b565b604051808215151515815260200191505060405180910390f35b3480156102a557600080fd5b506102ae611259565b6040518082815260200191505060405180910390f35b3480156102d057600080fd5b506102d961125f565b604051808273ffffffffffffffffffffffffffffffffffffffff1673ffffffffffffffffffffffffffffffffffffffff16815260200191505060405180910390f35b34801561032757600080fd5b50610330611284565b604051808273ffffffffffffffffffffffffffffffffffffffff1673ffffffffffffffffffffffffffffffffffffffff16815260200191505060405180910390f35b34801561037e57600080fd5b506103b3600480360381019080803573ffffffffffffffffffffffffffffffffffffffff1690602001909291905050506112aa565b005b6000600560003373ffffffffffffffffffffffffffffffffffffffff1673ffffffffffffffffffffffffffffffffffffffff16815260200190815260200160002054905090565b60008060009054906101000a900473ffffffffffffffffffffffffffffffffffffffff1673ffffffffffffffffffffffffffffffffffffffff163373ffffffffffffffffffffffffffffffffffffffff1614151561045957600080fd5b60008211151561046857600080fd5b6000826001540111151561047b57600080fd5b60011515600260009054906101000a900473ffffffffffffffffffffffffffffffffffffffff1673ffffffffffffffffffffffffffffffffffffffff166323b872dd6000809054906101000a900473ffffffffffffffffffffffffffffffffffffffff1630866040518463ffffffff167c0100000000000000000000000000000000000000000000000000000000028152600401808473ffffffffffffffffffffffffffffffffffffffff1673ffffffffffffffffffffffffffffffffffffffff1681526020018373ffffffffffffffffffffffffffffffffffffffff1673ffffffffffffffffffffffffffffffffffffffff1681526020018281526020019350505050602060405180830381600087803b15801561059957600080fd5b505af11580156105ad573d6000803e3d6000fd5b505050506040513d60208110156105c357600080fd5b81019080805190602001909291905050501515141561062f576105f1826001546113ff90919063ffffffff16565b6001819055507f2cf422f0db775a5196b0522ebb4163e406555111657596b21fdf60a425ef9f4b826040518082815260200191505060405180910390a15b60019050919050565b60035481565b60008060009054906101000a900473ffffffffffffffffffffffffffffffffffffffff1673ffffffffffffffffffffffffffffffffffffffff163373ffffffffffffffffffffffffffffffffffffffff1614151561069b57600080fd5b6000821115156106aa57600080fd5b81600154101515156106bb57600080fd5b60011515600260009054906101000a900473ffffffffffffffffffffffffffffffffffffffff1673ffffffffffffffffffffffffffffffffffffffff1663a9059cbb6000809054906101000a900473ffffffffffffffffffffffffffffffffffffffff16856040518363ffffffff167c0100000000000000000000000000000000000000000000000000000000028152600401808373ffffffffffffffffffffffffffffffffffffffff1673ffffffffffffffffffffffffffffffffffffffff16815260200182815260200192505050602060405180830381600087803b1580156107a557600080fd5b505af11580156107b9573d6000803e3d6000fd5b505050506040513d60208110156107cf57600080fd5b81019080805190602001909291905050501515141561083b576107fd8260015461141b90919063ffffffff16565b6001819055507ff166572613e4a34fe106452ac2dc4bd46c0ab1fca39edbeb07581979fac4a41b826040518082815260200191505060405180910390a15b60019050919050565b6000600154905090565b6000808211151561085e57600080fd5b81600560003373ffffffffffffffffffffffffffffffffffffffff1673ffffffffffffffffffffffffffffffffffffffff16815260200190815260200160002054101515156108ac57600080fd5b60011515600260009054906101000a900473ffffffffffffffffffffffffffffffffffffffff1673ffffffffffffffffffffffffffffffffffffffff1663a9059cbb33856040518363ffffffff167c0100000000000000000000000000000000000000000000000000000000028152600401808373ffffffffffffffffffffffffffffffffffffffff1673ffffffffffffffffffffffffffffffffffffffff16815260200182815260200192505050602060405180830381600087803b15801561097557600080fd5b505af1158015610989573d6000803e3d6000fd5b505050506040513d602081101561099f57600080fd5b810190808051906020019092919050505015151415610a9c57610a0a82600560003373ffffffffffffffffffffffffffffffffffffffff1673ffffffffffffffffffffffffffffffffffffffff1681526020019081526020016000205461141b90919063ffffffff16565b600560003373ffffffffffffffffffffffffffffffffffffffff1673ffffffffffffffffffffffffffffffffffffffff168152602001908152602001600020819055503373ffffffffffffffffffffffffffffffffffffffff167fe771cbdc934e8eaff1601563afb99703bf855bf3264bad95f3dce40185e2f3df836040518082815260200191505060405180910390a25b60019050919050565b60008082111515610ab557600080fd5b600082600560003373ffffffffffffffffffffffffffffffffffffffff1673ffffffffffffffffffffffffffffffffffffffff1681526020019081526020016000205401111515610b0557600080fd5b81600260009054906101000a900473ffffffffffffffffffffffffffffffffffffffff1673ffffffffffffffffffffffffffffffffffffffff1663dd62ed3e33306040518363ffffffff167c0100000000000000000000000000000000000000000000000000000000028152600401808373ffffffffffffffffffffffffffffffffffffffff1673ffffffffffffffffffffffffffffffffffffffff1681526020018273ffffffffffffffffffffffffffffffffffffffff1673ffffffffffffffffffffffffffffffffffffffff16815260200192505050602060405180830381600087803b158015610bf757600080fd5b505af1158015610c0b573d6000803e3d6000fd5b505050506040513d6020811015610c2157600080fd5b8101908080519060200190929190505050141515610c3e57600080fd5b60011515600260009054906101000a900473ffffffffffffffffffffffffffffffffffffffff1673ffffffffffffffffffffffffffffffffffffffff166323b872dd3330866040518463ffffffff167c0100000000000000000000000000000000000000000000000000000000028152600401808473ffffffffffffffffffffffffffffffffffffffff1673ffffffffffffffffffffffffffffffffffffffff1681526020018373ffffffffffffffffffffffffffffffffffffffff1673ffffffffffffffffffffffffffffffffffffffff1681526020018281526020019350505050602060405180830381600087803b158015610d3b57600080fd5b505af1158015610d4f573d6000803e3d6000fd5b505050506040513d6020811015610d6557600080fd5b810190808051906020019092919050505015151415610e6257610dd082600560003373ffffffffffffffffffffffffffffffffffffffff1673ffffffffffffffffffffffffffffffffffffffff168152602001908152602001600020546113ff90919063ffffffff16565b600560003373ffffffffffffffffffffffffffffffffffffffff1673ffffffffffffffffffffffffffffffffffffffff168152602001908152602001600020819055503373ffffffffffffffffffffffffffffffffffffffff167f6b1c2e545aa71baa41265cd601043ec2a8d3a555f7a9e6eb2a2fe71fd39123e2836040518082815260200191505060405180910390a25b60019050919050565b600080610e76611434565b83600081111515610e8657600080fd5b60035481101515610e9657600080fd5b600081600560003373ffffffffffffffffffffffffffffffffffffffff1673ffffffffffffffffffffffffffffffffffffffff1681526020019081526020016000205401111515610ee657600080fd5b600560003373ffffffffffffffffffffffffffffffffffffffff1673ffffffffffffffffffffffffffffffffffffffff168152602001908152602001600020548111151515610f3457600080fd5b8060015410151515610f4557600080fd5b60656001430340428733600560003373ffffffffffffffffffffffffffffffffffffffff1673ffffffffffffffffffffffffffffffffffffffff168152602001908152602001600020546040518086600019166000191681526020018581526020018481526020018373ffffffffffffffffffffffffffffffffffffffff1673ffffffffffffffffffffffffffffffffffffffff166c010000000000000000000000000281526014018281526020019550505050505060405180910390206001900481151561101057fe5b06925060328360ff1611935060806040519081016040528085151581526020018460ff1681526020013373ffffffffffffffffffffffffffffffffffffffff1681526020018681525091506006829080600181540180825580915050906001820390600052602060002090600402016000909192909190915060008201518160000160006101000a81548160ff0219169083151502179055506020820151816001015560408201518160020160006101000a81548173ffffffffffffffffffffffffffffffffffffffff021916908373ffffffffffffffffffffffffffffffffffffffff160217905550606082015181600301555050503373ffffffffffffffffffffffffffffffffffffffff167fa74424d4957b966f1ff6f7e77c65abc079a1d719d849b71fa22b10eba2cb3e5a85858860405180841515151581526020018360ff168152602001828152602001935050505060405180910390a26001151584151514156111e75761118e8560015461141b90919063ffffffff16565b506111e185600560003373ffffffffffffffffffffffffffffffffffffffff1673ffffffffffffffffffffffffffffffffffffffff168152602001908152602001600020546113ff90919063ffffffff16565b50611251565b6111fc856001546113ff90919063ffffffff16565b5061124f85600560003373ffffffffffffffffffffffffffffffffffffffff1673ffffffffffffffffffffffffffffffffffffffff1681526020019081526020016000205461141b90919063ffffffff16565b505b505050919050565b60015481565b6000809054906101000a900473ffffffffffffffffffffffffffffffffffffffff1681565b600460009054906101000a900473ffffffffffffffffffffffffffffffffffffffff1681565b6000809054906101000a900473ffffffffffffffffffffffffffffffffffffffff1673ffffffffffffffffffffffffffffffffffffffff163373ffffffffffffffffffffffffffffffffffffffff1614151561130557600080fd5b600073ffffffffffffffffffffffffffffffffffffffff168173ffffffffffffffffffffffffffffffffffffffff161415151561134157600080fd5b8073ffffffffffffffffffffffffffffffffffffffff166000809054906101000a900473ffffffffffffffffffffffffffffffffffffffff1673ffffffffffffffffffffffffffffffffffffffff167f8be0079c531659141344cd1fd0a4f28419497f9722a3daafe3b4186f6b6457e060405160405180910390a3806000806101000a81548173ffffffffffffffffffffffffffffffffffffffff021916908373ffffffffffffffffffffffffffffffffffffffff16021790555050565b6000818301905082811015151561141257fe5b80905092915050565b600082821115151561142957fe5b818303905092915050565b60806040519081016040528060001515815260200160008152602001600073ffffffffffffffffffffffffffffffffffffffff1681526020016000815250905600a165627a7a72305820270b987a7f64682dc5d2ac9fea40a5c935208a49e43b7a42517a71d3ae780cdd0029",
  "source": "pragma solidity ^0.4.21;\n\nimport \"zeppelin-solidity/contracts/math/SafeMath.sol\";\nimport \"zeppelin-solidity/contracts/ownership/Ownable.sol\";\nimport \"zeppelin-solidity/contracts/token/ERC20/ERC20.sol\";\n\ncontract GamblingPlatform is Ownable {\n    using SafeMath for uint256;\n\n    uint256 public currentSupply;\n    ERC20 nyanyukToken;\n    \n    uint256 public maxBet;\n    address public tokenAddress;\n\n    mapping(address => uint256) playerBalance;\n    Bet[] betResult;\n\n    struct Bet {\n        bool isPlayerWon;\n        uint diceResult;\n        address playerAddress;\n        uint256 amountOfBet;\n    }\n\n    event BetCreated(address indexed playerAddress, bool isPlayerWon, uint diceResult, uint256 amountOfBet);\n    event PlayerDeposited(address indexed playerAddress, uint256 amount);\n    event PlayerWithdrew(address indexed playerAddress, uint256 amount);\n    event OwnerDeposited(uint256 amount);\n    event OwnerWithdrew(uint256 amount);\n\n    constructor(uint256 _maxBet, address _tokenAddress) public  {\n        maxBet = _maxBet;\n        tokenAddress = _tokenAddress;\n        nyanyukToken = ERC20(tokenAddress);\n    }\n\n    modifier canBet(uint256 _betAmount){\n        require(_betAmount > 0);\n        require(_betAmount < maxBet);\n        require(playerBalance[msg.sender] + _betAmount > 0);\n        require(_betAmount <= playerBalance[msg.sender]);\n        require(currentSupply >= _betAmount);\n        _;\n    }\n\n    /**\n     * @dev main function for the buyer to bet\n     * @dev in case of owner cannot pay the player so current supply should more than the amount user can bet\n     * @param _betAmount amount to bet\n     */\n    function bet(uint256 _betAmount) external canBet(_betAmount) returns (bool isPlayerWon) {\n        uint8 diceResult = uint8(uint256(keccak256(block.blockhash(block.number - 1), block.timestamp, _betAmount, msg.sender, playerBalance[msg.sender])) % 101);\n        isPlayerWon = diceResult > 50;\n        Bet memory newBet = Bet(isPlayerWon, diceResult, msg.sender, _betAmount);\n        betResult.push(newBet);\n        emit BetCreated(msg.sender, isPlayerWon, diceResult, _betAmount);\n        if (isPlayerWon == true) {\n            currentSupply.sub(_betAmount);\n            playerBalance[msg.sender].add(_betAmount);\n        } else {\n            currentSupply.add(_betAmount);\n            playerBalance[msg.sender].sub(_betAmount);\n        }\n    }\n\n    /**\n     * @dev function for owner to deposit\n     * @dev owner has to approve this contract before running this function\n     * @dev if the amount he approve same than what he request, then contract will transfer from the owner address and add the current supply\n     * @param _amount amount to deposit\n     */\n    function ownerDeposit(uint256 _amount) external onlyOwner() returns (bool) {\n        require(_amount > 0);\n        require(currentSupply + _amount > 0);\n        if (nyanyukToken.transferFrom(owner, address(this), _amount) == true) {\n            currentSupply = currentSupply.add(_amount);\n            emit OwnerDeposited(_amount);\n        }\n        return true;\n    }\n\n    /**\n     * @dev function for owner to withdraw the token based on currentSupply\n     * @param _amount amount to deposit\n     */\n    function ownerWithdraw(uint256 _amount) external onlyOwner() returns (bool) {\n        require(_amount > 0);\n        require(currentSupply >= _amount);\n        if (nyanyukToken.transfer(owner, _amount) == true) {\n            currentSupply = currentSupply.sub(_amount);\n            emit OwnerWithdrew(_amount);\n        }\n        return true;\n    }\n\n    /**\n     * @dev function for the player to deposit token that he can use to do betting\n     * @dev player has to approve the contract address with the certain amount he want to deposit before calling this function\n     * @dev approving different amount to the contract than the _amount params supplied will yield an error\n     * @param _amount amount to deposit\n     */\n    function playerDeposit(uint256 _amount) external returns (bool) {\n        require(_amount > 0);\n        require(playerBalance[msg.sender] + _amount > 0);\n        require(nyanyukToken.allowance(msg.sender, address(this)) == _amount); //make sure we can get the money user deposit\n        if (nyanyukToken.transferFrom(msg.sender, address(this), _amount) == true) {\n            playerBalance[msg.sender] = playerBalance[msg.sender].add(_amount);\n            emit PlayerDeposited(msg.sender, _amount);\n        }\n        return true;\n    }\n\n    /**\n     * @dev function for the player to withdraw his token from the platform\n     * @param _amount amount to withdraw\n     */\n    function playerWithdraw(uint256 _amount) external returns (bool) {\n        require(_amount > 0);\n        require(playerBalance[msg.sender] >= _amount);\n        if (nyanyukToken.transfer(msg.sender, _amount) == true) {\n            playerBalance[msg.sender] = playerBalance[msg.sender].sub(_amount);\n            emit PlayerWithdrew(msg.sender, _amount);\n        }\n        return true;\n    }\n\n    /**\n     * @dev function for owner to get current supply\n     */\n    function getCurrentSupply() external view returns (uint256) {\n        return currentSupply;\n    }\n\n    /**\n      * @dev function for player to get current balance\n      */\n    function getPlayerBalance() external view returns (uint256) {\n        return playerBalance[msg.sender];\n    }\n}",
  "sourcePath": "C:\\projects\\gambleshit\\nyanyuktoken\\contracts\\GamblingPlatform.sol",
  "compiler": {
    "name": "solc",
    "version": "0.4.23+commit.124ca40d.Emscripten.clang"
  },
  "schemaVersion": "2.0.0",
  "updatedAt": "2018-05-02T06:34:45.472Z"
}