{
  "contractName": "NyanyukToken",
  "abi": [
    {
      "constant": true,
      "inputs": [],
      "name": "name",
      "outputs": [
        {
          "name": "",
          "type": "string"
        }
      ],
      "payable": false,
      "stateMutability": "view",
      "type": "function"
    },
    {
      "constant": true,
      "inputs": [],
      "name": "isTokenSentToOwner",
      "outputs": [
        {
          "name": "",
          "type": "bool"
        }
      ],
      "payable": false,
      "stateMutability": "view",
      "type": "function"
    },
    {
      "constant": false,
      "inputs": [
        {
          "name": "_spender",
          "type": "address"
        },
        {
          "name": "_value",
          "type": "uint256"
        }
      ],
      "name": "approve",
      "outputs": [
        {
          "name": "",
          "type": "bool"
        }
      ],
      "payable": false,
      "stateMutability": "nonpayable",
      "type": "function"
    },
    {
      "constant": true,
      "inputs": [],
      "name": "totalSupply",
      "outputs": [
        {
          "name": "",
          "type": "uint256"
        }
      ],
      "payable": false,
      "stateMutability": "view",
      "type": "function"
    },
    {
      "constant": false,
      "inputs": [
        {
          "name": "_from",
          "type": "address"
        },
        {
          "name": "_to",
          "type": "address"
        },
        {
          "name": "_value",
          "type": "uint256"
        }
      ],
      "name": "transferFrom",
      "outputs": [
        {
          "name": "",
          "type": "bool"
        }
      ],
      "payable": false,
      "stateMutability": "nonpayable",
      "type": "function"
    },
    {
      "constant": true,
      "inputs": [],
      "name": "decimals",
      "outputs": [
        {
          "name": "",
          "type": "uint256"
        }
      ],
      "payable": false,
      "stateMutability": "view",
      "type": "function"
    },
    {
      "constant": false,
      "inputs": [
        {
          "name": "_spender",
          "type": "address"
        },
        {
          "name": "_subtractedValue",
          "type": "uint256"
        }
      ],
      "name": "decreaseApproval",
      "outputs": [
        {
          "name": "",
          "type": "bool"
        }
      ],
      "payable": false,
      "stateMutability": "nonpayable",
      "type": "function"
    },
    {
      "constant": true,
      "inputs": [],
      "name": "rewardSupply",
      "outputs": [
        {
          "name": "",
          "type": "uint256"
        }
      ],
      "payable": false,
      "stateMutability": "view",
      "type": "function"
    },
    {
      "constant": true,
      "inputs": [
        {
          "name": "_owner",
          "type": "address"
        }
      ],
      "name": "balanceOf",
      "outputs": [
        {
          "name": "",
          "type": "uint256"
        }
      ],
      "payable": false,
      "stateMutability": "view",
      "type": "function"
    },
    {
      "constant": true,
      "inputs": [],
      "name": "rewardToTotalSupplyRatio",
      "outputs": [
        {
          "name": "",
          "type": "uint256"
        }
      ],
      "payable": false,
      "stateMutability": "view",
      "type": "function"
    },
    {
      "constant": true,
      "inputs": [],
      "name": "owner",
      "outputs": [
        {
          "name": "",
          "type": "address"
        }
      ],
      "payable": false,
      "stateMutability": "view",
      "type": "function"
    },
    {
      "constant": true,
      "inputs": [],
      "name": "symbol",
      "outputs": [
        {
          "name": "",
          "type": "string"
        }
      ],
      "payable": false,
      "stateMutability": "view",
      "type": "function"
    },
    {
      "constant": false,
      "inputs": [
        {
          "name": "_to",
          "type": "address"
        },
        {
          "name": "_value",
          "type": "uint256"
        }
      ],
      "name": "transfer",
      "outputs": [
        {
          "name": "",
          "type": "bool"
        }
      ],
      "payable": false,
      "stateMutability": "nonpayable",
      "type": "function"
    },
    {
      "constant": true,
      "inputs": [],
      "name": "defaultMaxPossibleReward",
      "outputs": [
        {
          "name": "",
          "type": "uint256"
        }
      ],
      "payable": false,
      "stateMutability": "view",
      "type": "function"
    },
    {
      "constant": false,
      "inputs": [
        {
          "name": "_spender",
          "type": "address"
        },
        {
          "name": "_addedValue",
          "type": "uint256"
        }
      ],
      "name": "increaseApproval",
      "outputs": [
        {
          "name": "",
          "type": "bool"
        }
      ],
      "payable": false,
      "stateMutability": "nonpayable",
      "type": "function"
    },
    {
      "constant": true,
      "inputs": [
        {
          "name": "_owner",
          "type": "address"
        },
        {
          "name": "_spender",
          "type": "address"
        }
      ],
      "name": "allowance",
      "outputs": [
        {
          "name": "",
          "type": "uint256"
        }
      ],
      "payable": false,
      "stateMutability": "view",
      "type": "function"
    },
    {
      "constant": false,
      "inputs": [
        {
          "name": "newOwner",
          "type": "address"
        }
      ],
      "name": "transferOwnership",
      "outputs": [],
      "payable": false,
      "stateMutability": "nonpayable",
      "type": "function"
    },
    {
      "inputs": [
        {
          "name": "_rewardSupply",
          "type": "uint256"
        },
        {
          "name": "_defaultMaxPossibleReward",
          "type": "uint256"
        },
        {
          "name": "_rewardToTotalSupplyRatio",
          "type": "uint256"
        }
      ],
      "payable": false,
      "stateMutability": "nonpayable",
      "type": "constructor"
    },
    {
      "anonymous": false,
      "inputs": [
        {
          "indexed": true,
          "name": "rewardReceiver",
          "type": "address"
        },
        {
          "indexed": false,
          "name": "ticketId",
          "type": "bytes32"
        },
        {
          "indexed": false,
          "name": "reward",
          "type": "uint8"
        }
      ],
      "name": "RewardReceived",
      "type": "event"
    },
    {
      "anonymous": false,
      "inputs": [
        {
          "indexed": true,
          "name": "rewardReceiver",
          "type": "address"
        },
        {
          "indexed": true,
          "name": "ticketId",
          "type": "bytes32"
        }
      ],
      "name": "TicketCreated",
      "type": "event"
    },
    {
      "anonymous": false,
      "inputs": [
        {
          "indexed": true,
          "name": "previousOwner",
          "type": "address"
        },
        {
          "indexed": true,
          "name": "newOwner",
          "type": "address"
        }
      ],
      "name": "OwnershipTransferred",
      "type": "event"
    },
    {
      "anonymous": false,
      "inputs": [
        {
          "indexed": true,
          "name": "owner",
          "type": "address"
        },
        {
          "indexed": true,
          "name": "spender",
          "type": "address"
        },
        {
          "indexed": false,
          "name": "value",
          "type": "uint256"
        }
      ],
      "name": "Approval",
      "type": "event"
    },
    {
      "anonymous": false,
      "inputs": [
        {
          "indexed": true,
          "name": "from",
          "type": "address"
        },
        {
          "indexed": true,
          "name": "to",
          "type": "address"
        },
        {
          "indexed": false,
          "name": "value",
          "type": "uint256"
        }
      ],
      "name": "Transfer",
      "type": "event"
    },
    {
      "constant": true,
      "inputs": [],
      "name": "timesDecimal",
      "outputs": [
        {
          "name": "",
          "type": "uint256"
        }
      ],
      "payable": false,
      "stateMutability": "view",
      "type": "function"
    },
    {
      "constant": true,
      "inputs": [],
      "name": "getRewardSupplyInSmallestUnit",
      "outputs": [
        {
          "name": "",
          "type": "uint256"
        }
      ],
      "payable": false,
      "stateMutability": "view",
      "type": "function"
    },
    {
      "constant": true,
      "inputs": [
        {
          "name": "_ticketReceiver",
          "type": "address"
        }
      ],
      "name": "getTickets",
      "outputs": [
        {
          "name": "",
          "type": "bytes32[]"
        }
      ],
      "payable": false,
      "stateMutability": "view",
      "type": "function"
    },
    {
      "constant": true,
      "inputs": [
        {
          "name": "_ticketId",
          "type": "bytes32"
        }
      ],
      "name": "getTicketDetails",
      "outputs": [
        {
          "name": "",
          "type": "bool"
        },
        {
          "name": "",
          "type": "uint256"
        },
        {
          "name": "",
          "type": "address"
        },
        {
          "name": "",
          "type": "uint256"
        },
        {
          "name": "",
          "type": "uint256"
        }
      ],
      "payable": false,
      "stateMutability": "view",
      "type": "function"
    },
    {
      "constant": false,
      "inputs": [
        {
          "name": "_ticketReceiver",
          "type": "address"
        },
        {
          "name": "_maxPossibleReward",
          "type": "uint256"
        },
        {
          "name": "_expiryDate",
          "type": "uint256"
        }
      ],
      "name": "createTicket",
      "outputs": [
        {
          "name": "_ticketId",
          "type": "bytes32"
        }
      ],
      "payable": false,
      "stateMutability": "nonpayable",
      "type": "function"
    },
    {
      "constant": false,
      "inputs": [
        {
          "name": "_ticketId",
          "type": "bytes32"
        }
      ],
      "name": "getMyReward",
      "outputs": [
        {
          "name": "_reward",
          "type": "uint8"
        }
      ],
      "payable": false,
      "stateMutability": "nonpayable",
      "type": "function"
    },
    {
      "constant": false,
      "inputs": [],
      "name": "sendToOwner",
      "outputs": [
        {
          "name": "success",
          "type": "bool"
        }
      ],
      "payable": false,
      "stateMutability": "nonpayable",
      "type": "function"
    }
  ],
  "bytecode": "0x6080604052624c4b40600455600160055560c860065560026007556000600860006101000a81548160ff0219169083151502179055503480156200004257600080fd5b506040516060806200247083398101806040528101908080519060200190929190805190602001909291908051906020019092919050505033600360006101000a81548173ffffffffffffffffffffffffffffffffffffffff021916908373ffffffffffffffffffffffffffffffffffffffff160217905550600083141515620000ce57826004819055505b600082141515620000e157816006819055505b600081141515620000f457806007819055505b620001316007546200011462000140640100000000026401000000009004565b62000164640100000000026200224f179091906401000000009004565b600181905550505050620001ad565b60006200015b620001a0640100000000026401000000009004565b60045402905090565b6000808314156200017957600090506200019a565b81830290508183828115156200018b57fe5b041415156200019657fe5b8090505b92915050565b6000600554600a0a905090565b6122b380620001bd6000396000f30060806040526004361061013e576000357c0100000000000000000000000000000000000000000000000000000000900463ffffffff16806306fdde0314610143578063089d223b146101d3578063095ea7b3146102025780630ad182bc1461026757806315a1619b146102ff57806318160ddd1461034a57806323b872dd14610375578063313ce567146103fa57806366188463146104255780636620a9351461048a5780636b0c341b146104b957806370a08231146104e457806380a3a18e1461053b5780638da5cb5b1461056657806395d89b41146105bd578063a9059cbb1461064d578063aef92791146106b2578063b26916e5146106dd578063b64dec6514610750578063b81394d0146107e1578063bbaad5761461080c578063d73dd62314610837578063dd62ed3e1461089c578063f2fde38b14610913575b600080fd5b34801561014f57600080fd5b50610158610956565b6040518080602001828103825283818151815260200191508051906020019080838360005b8381101561019857808201518184015260208101905061017d565b50505050905090810190601f1680156101c55780820380516001836020036101000a031916815260200191505b509250505060405180910390f35b3480156101df57600080fd5b506101e861098f565b604051808215151515815260200191505060405180910390f35b34801561020e57600080fd5b5061024d600480360381019080803573ffffffffffffffffffffffffffffffffffffffff169060200190929190803590602001909291905050506109a2565b604051808215151515815260200191505060405180910390f35b34801561027357600080fd5b506102a8600480360381019080803573ffffffffffffffffffffffffffffffffffffffff169060200190929190505050610a94565b6040518080602001828103825283818151815260200191508051906020019060200280838360005b838110156102eb5780820151818401526020810190506102d0565b505050509050019250505060405180910390f35b34801561030b57600080fd5b5061032e6004803603810190808035600019169060200190929190505050610b2f565b604051808260ff1660ff16815260200191505060405180910390f35b34801561035657600080fd5b5061035f610f82565b6040518082815260200191505060405180910390f35b34801561038157600080fd5b506103e0600480360381019080803573ffffffffffffffffffffffffffffffffffffffff169060200190929190803573ffffffffffffffffffffffffffffffffffffffff16906020019092919080359060200190929190505050610f8c565b604051808215151515815260200191505060405180910390f35b34801561040657600080fd5b5061040f611346565b6040518082815260200191505060405180910390f35b34801561043157600080fd5b50610470600480360381019080803573ffffffffffffffffffffffffffffffffffffffff1690602001909291908035906020019092919050505061134c565b604051808215151515815260200191505060405180910390f35b34801561049657600080fd5b5061049f6115dd565b604051808215151515815260200191505060405180910390f35b3480156104c557600080fd5b506104ce611728565b6040518082815260200191505060405180910390f35b3480156104f057600080fd5b50610525600480360381019080803573ffffffffffffffffffffffffffffffffffffffff16906020019092919050505061172e565b6040518082815260200191505060405180910390f35b34801561054757600080fd5b50610550611776565b6040518082815260200191505060405180910390f35b34801561057257600080fd5b5061057b61177c565b604051808273ffffffffffffffffffffffffffffffffffffffff1673ffffffffffffffffffffffffffffffffffffffff16815260200191505060405180910390f35b3480156105c957600080fd5b506105d26117a2565b6040518080602001828103825283818151815260200191508051906020019080838360005b838110156106125780820151818401526020810190506105f7565b50505050905090810190601f16801561063f5780820380516001836020036101000a031916815260200191505b509250505060405180910390f35b34801561065957600080fd5b50610698600480360381019080803573ffffffffffffffffffffffffffffffffffffffff169060200190929190803590602001909291905050506117db565b604051808215151515815260200191505060405180910390f35b3480156106be57600080fd5b506106c76119fa565b6040518082815260200191505060405180910390f35b3480156106e957600080fd5b50610732600480360381019080803573ffffffffffffffffffffffffffffffffffffffff1690602001909291908035906020019092919080359060200190929190505050611a0d565b60405180826000191660001916815260200191505060405180910390f35b34801561075c57600080fd5b5061077f6004803603810190808035600019169060200190929190505050611d01565b60405180861515151581526020018581526020018473ffffffffffffffffffffffffffffffffffffffff1673ffffffffffffffffffffffffffffffffffffffff1681526020018381526020018281526020019550505050505060405180910390f35b3480156107ed57600080fd5b506107f6611de4565b6040518082815260200191505060405180910390f35b34801561081857600080fd5b50610821611df1565b6040518082815260200191505060405180910390f35b34801561084357600080fd5b50610882600480360381019080803573ffffffffffffffffffffffffffffffffffffffff16906020019092919080359060200190929190505050611df7565b604051808215151515815260200191505060405180910390f35b3480156108a857600080fd5b506108fd600480360381019080803573ffffffffffffffffffffffffffffffffffffffff169060200190929190803573ffffffffffffffffffffffffffffffffffffffff169060200190929190505050611ff3565b6040518082815260200191505060405180910390f35b34801561091f57600080fd5b50610954600480360381019080803573ffffffffffffffffffffffffffffffffffffffff16906020019092919050505061207a565b005b6040805190810160405280600c81526020017f4e79616e79756b20436f696e000000000000000000000000000000000000000081525081565b600860009054906101000a900460ff1681565b600081600260003373ffffffffffffffffffffffffffffffffffffffff1673ffffffffffffffffffffffffffffffffffffffff16815260200190815260200160002060008573ffffffffffffffffffffffffffffffffffffffff1673ffffffffffffffffffffffffffffffffffffffff168152602001908152602001600020819055508273ffffffffffffffffffffffffffffffffffffffff163373ffffffffffffffffffffffffffffffffffffffff167f8c5be1e5ebec7d5bd14f71427d1e84f3dd0314c0f7b2291e5b200ac8c7c3b925846040518082815260200191505060405180910390a36001905092915050565b6060600a60008373ffffffffffffffffffffffffffffffffffffffff1673ffffffffffffffffffffffffffffffffffffffff168152602001908152602001600020805480602002602001604051908101604052809291908181526020018280548015610b2357602002820191906000526020600020905b81546000191681526020019060010190808311610b0b575b50505050509050919050565b6000610b39612207565b82610b42612207565b60096000836000191660001916815260200190815260200160002060a060405190810160405290816000820160009054906101000a900460ff16151515158152602001600182015481526020016002820160009054906101000a900473ffffffffffffffffffffffffffffffffffffffff1673ffffffffffffffffffffffffffffffffffffffff1673ffffffffffffffffffffffffffffffffffffffff168152602001600382015481526020016004820154815250509050600073ffffffffffffffffffffffffffffffffffffffff16816040015173ffffffffffffffffffffffffffffffffffffffff1614151515610c3a57600080fd5b3373ffffffffffffffffffffffffffffffffffffffff16816040015173ffffffffffffffffffffffffffffffffffffffff16141515610c7857600080fd5b6000151581600001511515141515610c8f57600080fd5b42816080015110151515610ca257600080fd5b6000600454111515610cb357600080fd5b60096000866000191660001916815260200190815260200160002060a060405190810160405290816000820160009054906101000a900460ff16151515158152602001600182015481526020016002820160009054906101000a900473ffffffffffffffffffffffffffffffffffffffff1673ffffffffffffffffffffffffffffffffffffffff1673ffffffffffffffffffffffffffffffffffffffff1681526020016003820154815260200160048201548152505092508260600151423373ffffffffffffffffffffffffffffffffffffffff166001430340886040518085815260200184815260200183600019166000191681526020018260001916600019168152602001945050505050604051809103902060019004811515610dd557fe5b06935060018460ff161015610de957600193505b8360ff166004541015610dfc5760045493505b600160096000876000191660001916815260200190815260200160002060000160006101000a81548160ff0219169083151502179055508360ff1660096000876000191660001916815260200190815260200160002060010181905550610eb6610e64611de4565b8560ff16026000803373ffffffffffffffffffffffffffffffffffffffff1673ffffffffffffffffffffffffffffffffffffffff168152602001908152602001600020546121d290919063ffffffff16565b6000803373ffffffffffffffffffffffffffffffffffffffff1673ffffffffffffffffffffffffffffffffffffffff168152602001908152602001600020819055503373ffffffffffffffffffffffffffffffffffffffff167f2421115c9246d91614ea669a63d1b6084c04cb429f5651aa4c1b2e2099d88b6286866040518083600019166000191681526020018260ff1660ff1681526020019250505060405180910390a2610f748460ff166004546121ee90919063ffffffff16565b600481905550505050919050565b6000600154905090565b60008073ffffffffffffffffffffffffffffffffffffffff168373ffffffffffffffffffffffffffffffffffffffff1614151515610fc957600080fd5b6000808573ffffffffffffffffffffffffffffffffffffffff1673ffffffffffffffffffffffffffffffffffffffff16815260200190815260200160002054821115151561101657600080fd5b600260008573ffffffffffffffffffffffffffffffffffffffff1673ffffffffffffffffffffffffffffffffffffffff16815260200190815260200160002060003373ffffffffffffffffffffffffffffffffffffffff1673ffffffffffffffffffffffffffffffffffffffff1681526020019081526020016000205482111515156110a157600080fd5b6110f2826000808773ffffffffffffffffffffffffffffffffffffffff1673ffffffffffffffffffffffffffffffffffffffff168152602001908152602001600020546121ee90919063ffffffff16565b6000808673ffffffffffffffffffffffffffffffffffffffff1673ffffffffffffffffffffffffffffffffffffffff16815260200190815260200160002081905550611185826000808673ffffffffffffffffffffffffffffffffffffffff1673ffffffffffffffffffffffffffffffffffffffff168152602001908152602001600020546121d290919063ffffffff16565b6000808573ffffffffffffffffffffffffffffffffffffffff1673ffffffffffffffffffffffffffffffffffffffff1681526020019081526020016000208190555061125682600260008773ffffffffffffffffffffffffffffffffffffffff1673ffffffffffffffffffffffffffffffffffffffff16815260200190815260200160002060003373ffffffffffffffffffffffffffffffffffffffff1673ffffffffffffffffffffffffffffffffffffffff168152602001908152602001600020546121ee90919063ffffffff16565b600260008673ffffffffffffffffffffffffffffffffffffffff1673ffffffffffffffffffffffffffffffffffffffff16815260200190815260200160002060003373ffffffffffffffffffffffffffffffffffffffff1673ffffffffffffffffffffffffffffffffffffffff168152602001908152602001600020819055508273ffffffffffffffffffffffffffffffffffffffff168473ffffffffffffffffffffffffffffffffffffffff167fddf252ad1be2c89b69c2b068fc378daa952ba7f163c4a11628f55a4df523b3ef846040518082815260200191505060405180910390a3600190509392505050565b60055481565b600080600260003373ffffffffffffffffffffffffffffffffffffffff1673ffffffffffffffffffffffffffffffffffffffff16815260200190815260200160002060008573ffffffffffffffffffffffffffffffffffffffff1673ffffffffffffffffffffffffffffffffffffffff1681526020019081526020016000205490508083111561145d576000600260003373ffffffffffffffffffffffffffffffffffffffff1673ffffffffffffffffffffffffffffffffffffffff16815260200190815260200160002060008673ffffffffffffffffffffffffffffffffffffffff1673ffffffffffffffffffffffffffffffffffffffff168152602001908152602001600020819055506114f1565b61147083826121ee90919063ffffffff16565b600260003373ffffffffffffffffffffffffffffffffffffffff1673ffffffffffffffffffffffffffffffffffffffff16815260200190815260200160002060008673ffffffffffffffffffffffffffffffffffffffff1673ffffffffffffffffffffffffffffffffffffffff168152602001908152602001600020819055505b8373ffffffffffffffffffffffffffffffffffffffff163373ffffffffffffffffffffffffffffffffffffffff167f8c5be1e5ebec7d5bd14f71427d1e84f3dd0314c0f7b2291e5b200ac8c7c3b925600260003373ffffffffffffffffffffffffffffffffffffffff1673ffffffffffffffffffffffffffffffffffffffff16815260200190815260200160002060008873ffffffffffffffffffffffffffffffffffffffff1673ffffffffffffffffffffffffffffffffffffffff168152602001908152602001600020546040518082815260200191505060405180910390a3600191505092915050565b6000600360009054906101000a900473ffffffffffffffffffffffffffffffffffffffff1673ffffffffffffffffffffffffffffffffffffffff163373ffffffffffffffffffffffffffffffffffffffff1614151561163b57600080fd5b60001515600860009054906101000a900460ff16151514151561165d57600080fd5b6116c46116776004546001546121ee90919063ffffffff16565b6000803373ffffffffffffffffffffffffffffffffffffffff1673ffffffffffffffffffffffffffffffffffffffff168152602001908152602001600020546121d290919063ffffffff16565b6000803373ffffffffffffffffffffffffffffffffffffffff1673ffffffffffffffffffffffffffffffffffffffff168152602001908152602001600020819055506001600860006101000a81548160ff0219169083151502179055506001905090565b60045481565b60008060008373ffffffffffffffffffffffffffffffffffffffff1673ffffffffffffffffffffffffffffffffffffffff168152602001908152602001600020549050919050565b60075481565b600360009054906101000a900473ffffffffffffffffffffffffffffffffffffffff1681565b6040805190810160405280600781526020017f4e59414e59554b0000000000000000000000000000000000000000000000000081525081565b60008073ffffffffffffffffffffffffffffffffffffffff168373ffffffffffffffffffffffffffffffffffffffff161415151561181857600080fd5b6000803373ffffffffffffffffffffffffffffffffffffffff1673ffffffffffffffffffffffffffffffffffffffff16815260200190815260200160002054821115151561186557600080fd5b6118b6826000803373ffffffffffffffffffffffffffffffffffffffff1673ffffffffffffffffffffffffffffffffffffffff168152602001908152602001600020546121ee90919063ffffffff16565b6000803373ffffffffffffffffffffffffffffffffffffffff1673ffffffffffffffffffffffffffffffffffffffff16815260200190815260200160002081905550611949826000808673ffffffffffffffffffffffffffffffffffffffff1673ffffffffffffffffffffffffffffffffffffffff168152602001908152602001600020546121d290919063ffffffff16565b6000808573ffffffffffffffffffffffffffffffffffffffff1673ffffffffffffffffffffffffffffffffffffffff168152602001908152602001600020819055508273ffffffffffffffffffffffffffffffffffffffff163373ffffffffffffffffffffffffffffffffffffffff167fddf252ad1be2c89b69c2b068fc378daa952ba7f163c4a11628f55a4df523b3ef846040518082815260200191505060405180910390a36001905092915050565b6000611a04611de4565b60045402905090565b6000806000611a1a612207565b600360009054906101000a900473ffffffffffffffffffffffffffffffffffffffff1673ffffffffffffffffffffffffffffffffffffffff163373ffffffffffffffffffffffffffffffffffffffff16141515611a7657600080fd5b600073ffffffffffffffffffffffffffffffffffffffff168773ffffffffffffffffffffffffffffffffffffffff1614151515611ab257600080fd5b60065492506000861115611ac4578592505b62093a80420191506000851115611ad9578491505b600b6000815480929190600101919050555060a060405190810160405280600015158152602001600081526020018873ffffffffffffffffffffffffffffffffffffffff168152602001848152602001838152509050868383600b54604051808573ffffffffffffffffffffffffffffffffffffffff1673ffffffffffffffffffffffffffffffffffffffff166c01000000000000000000000000028152601401848152602001838152602001828152602001945050505050604051809103902093508060096000866000191660001916815260200190815260200160002060008201518160000160006101000a81548160ff0219169083151502179055506020820151816001015560408201518160020160006101000a81548173ffffffffffffffffffffffffffffffffffffffff021916908373ffffffffffffffffffffffffffffffffffffffff1602179055506060820151816003015560808201518160040155905050600a60008873ffffffffffffffffffffffffffffffffffffffff1673ffffffffffffffffffffffffffffffffffffffff16815260200190815260200160002084908060018154018082558091505090600182039060005260206000200160009091929091909150906000191690555083600019163373ffffffffffffffffffffffffffffffffffffffff167f1773b9d6f7d01fef0a137c41aa54bf8a0b84c67ccfa3b5145da299166f62769560405160405180910390a35050509392505050565b600080600080600060096000876000191660001916815260200190815260200160002060000160009054906101000a900460ff166009600088600019166000191681526020019081526020016000206001015460096000896000191660001916815260200190815260200160002060020160009054906101000a900473ffffffffffffffffffffffffffffffffffffffff16600960008a6000191660001916815260200190815260200160002060030154600960008b60001916600019168152602001908152602001600020600401549450945094509450945091939590929450565b6000600554600a0a905090565b60065481565b6000611e8882600260003373ffffffffffffffffffffffffffffffffffffffff1673ffffffffffffffffffffffffffffffffffffffff16815260200190815260200160002060008673ffffffffffffffffffffffffffffffffffffffff1673ffffffffffffffffffffffffffffffffffffffff168152602001908152602001600020546121d290919063ffffffff16565b600260003373ffffffffffffffffffffffffffffffffffffffff1673ffffffffffffffffffffffffffffffffffffffff16815260200190815260200160002060008573ffffffffffffffffffffffffffffffffffffffff1673ffffffffffffffffffffffffffffffffffffffff168152602001908152602001600020819055508273ffffffffffffffffffffffffffffffffffffffff163373ffffffffffffffffffffffffffffffffffffffff167f8c5be1e5ebec7d5bd14f71427d1e84f3dd0314c0f7b2291e5b200ac8c7c3b925600260003373ffffffffffffffffffffffffffffffffffffffff1673ffffffffffffffffffffffffffffffffffffffff16815260200190815260200160002060008773ffffffffffffffffffffffffffffffffffffffff1673ffffffffffffffffffffffffffffffffffffffff168152602001908152602001600020546040518082815260200191505060405180910390a36001905092915050565b6000600260008473ffffffffffffffffffffffffffffffffffffffff1673ffffffffffffffffffffffffffffffffffffffff16815260200190815260200160002060008373ffffffffffffffffffffffffffffffffffffffff1673ffffffffffffffffffffffffffffffffffffffff16815260200190815260200160002054905092915050565b600360009054906101000a900473ffffffffffffffffffffffffffffffffffffffff1673ffffffffffffffffffffffffffffffffffffffff163373ffffffffffffffffffffffffffffffffffffffff161415156120d657600080fd5b600073ffffffffffffffffffffffffffffffffffffffff168173ffffffffffffffffffffffffffffffffffffffff161415151561211257600080fd5b8073ffffffffffffffffffffffffffffffffffffffff16600360009054906101000a900473ffffffffffffffffffffffffffffffffffffffff1673ffffffffffffffffffffffffffffffffffffffff167f8be0079c531659141344cd1fd0a4f28419497f9722a3daafe3b4186f6b6457e060405160405180910390a380600360006101000a81548173ffffffffffffffffffffffffffffffffffffffff021916908373ffffffffffffffffffffffffffffffffffffffff16021790555050565b600081830190508281101515156121e557fe5b80905092915050565b60008282111515156121fc57fe5b818303905092915050565b60a06040519081016040528060001515815260200160008152602001600073ffffffffffffffffffffffffffffffffffffffff16815260200160008152602001600081525090565b6000808314156122625760009050612281565b818302905081838281151561227357fe5b0414151561227d57fe5b8090505b929150505600a165627a7a72305820a5f2b870c9675897f6d240b912d626c4f78b876e12b0e108ca2b6ee8055c777c0029",
  "source": "pragma solidity ^0.4.21;\n\nimport \"zeppelin-solidity/contracts/token/ERC20/StandardToken.sol\";\nimport \"zeppelin-solidity/contracts/math/SafeMath.sol\";\nimport \"zeppelin-solidity/contracts/ownership/Ownable.sol\";\n\ncontract NyanyukToken is StandardToken, Ownable {\n    using SafeMath for uint256;\n\n    string public constant name = \"Nyanyuk Coin\";\n    string public constant symbol = \"NYANYUK\";\n\n    uint256 public rewardSupply = 5000000;\n    uint public decimals = 1;\n    uint public defaultMaxPossibleReward = 200; // default max reward to get from lottery\n    uint public rewardToTotalSupplyRatio = 2;\n\n    bool public isTokenSentToOwner = false;\n\n    struct Ticket {\n        bool isUsed;\n        uint rewardReceived;\n        address ownerAddress;\n        uint maxPossibleReward;\n        uint expiryDate;\n    }\n\n    mapping(bytes32 => Ticket) tickets;\n    mapping(address => bytes32[]) addressTickets;\n\n    uint256 ticketLength;\n\n    event RewardReceived(address indexed rewardReceiver, bytes32 ticketId, uint8 reward);\n    event TicketCreated(address indexed rewardReceiver, bytes32 indexed ticketId);\n\n    function timesDecimal() public view returns (uint) {\n        return 10**decimals;\n    }\n\n    function getRewardSupplyInSmallestUnit() public view returns (uint256) {\n        return rewardSupply * timesDecimal();\n    }\n\n    constructor(uint256 _rewardSupply, uint _defaultMaxPossibleReward, uint _rewardToTotalSupplyRatio) public  {\n        if (_rewardSupply != 0) {\n            rewardSupply = _rewardSupply;\n        }\n        if (_defaultMaxPossibleReward != 0) {\n            defaultMaxPossibleReward = _defaultMaxPossibleReward;\n        }\n        if (_rewardToTotalSupplyRatio  != 0) {\n            rewardToTotalSupplyRatio = _rewardToTotalSupplyRatio;\n        }\n        totalSupply_ = getRewardSupplyInSmallestUnit().mul(rewardToTotalSupplyRatio);\n     }\n\n    /**\n     * @dev valid ticket criterias:\n     * @dev - valid ticket\n     * @dev - ticket owner = msg.sender\n     * @dev - ticket has not being used\n     * @dev - ticket has not been expired\n     */\n    modifier onlyValidTicket(bytes32 _ticketId) {\n        Ticket memory ticket = tickets[_ticketId];\n        require(ticket.ownerAddress != address(0));\n        require(ticket.ownerAddress == msg.sender);\n        require(ticket.isUsed == false);\n        require(ticket.expiryDate >= now);\n        _;\n    }\n\n    /**\n     * @dev get tickets owned by an address\n     * @param _ticketReceiver address representing the address in which we wanted to get the tickets\n     * @return list of tickets particular address owned\n     */\n     function getTickets(address _ticketReceiver) public view returns (bytes32[]) {\n        return addressTickets[_ticketReceiver];\n     }\n\n    /**\n     * @dev get details of the ticket from ticket id\n     * @param _ticketId bytes32 representing ticket id in hash\n     * @return destructured ticket\n     */\n     function getTicketDetails(bytes32 _ticketId) public view returns (bool, uint, address, uint, uint) {\n        return (tickets[_ticketId].isUsed, tickets[_ticketId].rewardReceived, tickets[_ticketId].ownerAddress, tickets[_ticketId].maxPossibleReward, tickets[_ticketId].expiryDate);\n     }\n\n    /**\n     * @dev used by the owner to generate ticket for a particular address with hash as key\n     * @param _ticketReceiver address representing address of this ticket will belong to\n     * @param _maxPossibleReward uint representing maximum possible rewards particular address can receive\n     * @param _expiryDate uint representing expiry date of the ticket\n     */\n    function createTicket(address _ticketReceiver, uint _maxPossibleReward, uint _expiryDate) external onlyOwner returns (bytes32 _ticketId) {\n        require(_ticketReceiver != address(0));\n        uint maxPossibleReward = defaultMaxPossibleReward;\n        if (_maxPossibleReward > 0) {\n            maxPossibleReward = _maxPossibleReward;\n        }\n        uint expiryDate = now + (7 * 24 * 60 * 60);\n        if (_expiryDate > 0) {\n            //by default set expiry date as 1 week after\n            expiryDate = _expiryDate;\n        }\n        ticketLength++;\n\n        Ticket memory newTicket = Ticket(false, 0, _ticketReceiver, maxPossibleReward, expiryDate);\n        _ticketId = keccak256(_ticketReceiver, maxPossibleReward, expiryDate, ticketLength);\n        tickets[_ticketId] = newTicket;\n\n\n        //store the tickets into that address\n        addressTickets[_ticketReceiver].push(_ticketId);\n\n        emit TicketCreated(msg.sender, _ticketId);\n    }\n\n    /**\n     * @dev get some nyanyukcoin randomly\n     * @dev each ticket can only be used for this function once\n     * @dev the number of nyanyuk coin to be randomized is between given max possible reward of a ticket\n     * @dev only the owner of the ticket can call this\n     * @param _ticketId bytes32 representing the ticket id to redeem\n     */\n    function getMyReward(bytes32 _ticketId) external onlyValidTicket(_ticketId) returns (uint8 _reward) {\n        require(rewardSupply > 0);\n        Ticket memory ticket = tickets[_ticketId];\n        _reward = uint8(uint256(keccak256(block.timestamp, uint(msg.sender), block.blockhash(block.number - 1), _ticketId)) % ticket.maxPossibleReward);\n\n        if (_reward < 1) {\n            _reward = 1;\n        }\n\n        if (rewardSupply < uint256(_reward)) {\n            // since it is lower than reward supply so we assume we can convert supply as uint8\n            _reward = uint8(rewardSupply);\n        }\n\n        tickets[_ticketId].isUsed = true;\n        tickets[_ticketId].rewardReceived = _reward;\n\n        //asign token to address in cents\n        balances[msg.sender] = balances[msg.sender].add(uint256(_reward * timesDecimal()));\n\n        //do event here\n        emit RewardReceived(msg.sender, _ticketId, _reward);\n\n        // in nyanyuk\n        rewardSupply = rewardSupply.sub(uint256(_reward));\n    }\n\n    /**\n     * @dev send token to owner\n     */\n    function sendToOwner() external onlyOwner() returns (bool success) {\n        require(isTokenSentToOwner == false);\n        balances[msg.sender] = balances[msg.sender].add(totalSupply_.sub(rewardSupply));\n        isTokenSentToOwner = true;\n        success = true;\n    }\n}",
  "sourcePath": "C:\\projects\\gambleshit\\nyanyuktoken\\contracts\\NyanyukToken.sol",
  "compiler": {
    "name": "solc",
    "version": "0.4.23+commit.124ca40d.Emscripten.clang"
  },
  "schemaVersion": "2.0.0",
  "updatedAt": "2018-05-02T06:34:45.488Z"
}